:20000000303F0020A1740000FDC90110FDC90110FDC90110FDC90110FDC90110FDC9011032
:1C002000FDC90110FDC90110FDC90110FDC90110FDC90110FDC901103BCA0110A4
:20003C002DE9F04F0120ADF1240DADF80A004FF00808ADF8088002A807F01CFF00263546D7
:20005C00D84C8DF81C509DF80C006070A6700498E0614FF6FF70A082404608F0B4FD071CE3
:20007C000CD00121122209F0C3F908F0BCFD07A90123D54A0091394607F0AEFD9DF81C0076
:20009C00D74F324601232070394604F1A80007F0B3F904F1CC0032460223394607F0ACF9BA
:2000BC0004F1F00032460423394607F0A5F9042031461022E07004F1480006F0F7F904F157
:2000DC0058003146102206F0F1F92562267266720720E67204F148021021A072022007F012
:2000FC00CDFF04F158020320102107F0C7FF042004F12002014607F0C1FF19E0A078B4F8C2
:20011C004050B4F84230B4F84420B4F8461006280ED1ADF80A50ADF80C30ADF80E20C84833
:20013C00ADF8101009F097FA012002A906F07CF90A20ADF80A00ADF808804FF0FF37039708
:20015C0002A807F097FE002840F0D38130460690ADF808800927ADF80A7002A807F08AFEF0
:20017C00DDF810A00028CDF818A040F0C281BDF80C00102840F0B18160789DF80E10884216
:20019C0040F0AB81554628884FF6FF71814200F09C812F78A23F00F081812E3F40F09D81E2
:2001BC00A878B146002800F04D81801E00F02581401E012840F2F880801E00F0AC80401EA9
:2001DC0073D0401E60D0083800F05981801E40F05B8194F83E70A888052FADF808004BD018
:2001FC0001208DF81200964809F035FA94F83E00012820D004281ED003280DD002280BD01B
:20021C000698C188ADF80A100189ADF80C104189ADF80E1080892BE0B4F84000B4F84270E6
:20023C00ADF80A00B4F84450ADF80C70B4F84600ADF80E501CE0B4F84000E9888842D8BFE3
:20025C00081CADF80A002989B4F842008842D8BF081CADF80C006989B4F844008842D8BF96
:20027C00081CADF80E00B4F84610A889814200DC0146ADF8101001E08DF81260AA4A02A837
:20029C00122107F0CAFFFFE0A84809F0E4F96878002840F0F980E888E082288920836889E2
:2002BC006083674809F02AF8EEE0B5F804900A2008F089FC071C0AD00121152209F098F8E0
:2002DC00A7F8089008F08FFC394608F0ADF9B9483146062206F0EAF8E68226836683A87998
:2002FC006073574809F0B7F9904809F0B4F94FF001094FF6FF706779A0824FB9A8790828F1
:20031C0014BF04200520A070484608F0ABFEBBE00320A070B8E0687800283DD1A549281DB7
:20033C0002680A60808888800627A7706889A082E889E082288A2083688A6083E878207376
:20035C0094F83E00012818BF022808D11F2007F0BDFA4FF47A714143394807F0CDFC95F847
:20037C0003B0B5F80A90142008F02DFC071C00F08E800121142209F03BF887F808B02D1DEC
:20039C00FD60A7F810900420B87408F02CFC824A394607F003FC7AE0687831286CD126718D
:2003BC00042024E0080200206878002864D1A878618AA278032815D02079677931B90128D1
:2003DC0014BF6671267107E0FF930000074303D0744807F091FCA278072AE1D1062006E0E1
:2003FC0081900000062A06D0207910B90320A0704DE00220FBE70720F9E7687800283BD1E9
:20041C00EF78A078E17997B9022815D0072813D0062802D1617901290ED103280CD06148E2
:20043C0008F06CFF40B9012008F01CFE04E0624A484606F0D5FE68706878E8B924E0C046C7
:20045C00D40200206878B8B9574A0220102107F02FFE564A0320102107F02AFE5748ED1C66
:20047C00AF88878029680160554A01231846A179A37006F0B5FE50B184F8028007E0A88823
:20049C00464A102107F0B0FEB9F1010F25D1606A18B3016809B3A07888471EE0687913286F
:2004BC001BD12889012808D1A07B022805D11F4809F0D1F806F07CFF0FE0052007F006FAC1
:2004DC0001461A4807F018FC07E06888C00B04D3374A0420014607F0EBFD069848B1ADF8CC
:2004FC0008800320ADF80A00CDF80CA002A807F0C1FC208A67792179420832D320F0010033
:20051C0057EA010520822CD097B92E49207A8DF80800677A8DF809700A680DF10A052A6004
:20053C008988A98007E0C046D1950000F802002003208DF80800A07AE77A194A8DF81000D5
:20055C0006218DF8117002A806F0BEFF616A38B184F8028021B1086810B10968404688477A
:20057C00208A810807D3184920F002002082304605F05AFF208AC108FFF4DAAD20F0040078
:20059C00A77B2082781E3FF4B9AD401E7FF4D0AD06F00EFFCCE5C046C7930000F595000060
:2005BC00E9950000B0020020500200206002002028020020400200208F0200203402002028
:2005DC00700200203A020020460200202DE9FE4FDD4981460122A1F130000260D848076883
:2005FC00002FFCD0D74AE34EC027D848D84B17603268920808D2324652F8042C03F14104B8
:20061C00120C42F0F00222704FF0000A8346C1F800A0DFF88CC3DBF80810E04F0191880E17
:20063C0043D2480E41D3802018744FF6D802A3F8512018703868C0F30464162CA8BF203C80
:20065C001E460F3E307800F01F001628A8BF2038844223D0624602F1980EE44ACEF800A08B
:20067C00251A022D05DC15F1020FB8BF6FF0010500E002254019156800F01F05844245F42C
:20069C00F855A6F866504FF001051560E8D110682E4616601068CEF80050106838460068DC
:2006BC00C0F30420162808DB06E0A7F1D0000068C0F30460162800DB203800EB2170401C10
:2006DC00162805DA10F10A0FB8BF6FF0090000E01520D54E00F01F0040F4F850A3F8590031
:2006FC00306880083ABFD148C0F800A041F040616246C80E8E0E80F0010000F00100106096
:20071C0086F0010000F001009060019806F0FCF80146182007F030FCA7F13806CD4C3068B9
:20073C003568A4F10408C0F3870105F0030041EA0021D8F80400C04D446840F2FF32534657
:20075C0088B22C21009028464038A047F06AC0F30D011C2007F010FCB549706A014000F036
:20077C007C400143142007F007FC316A01F47C000904090C0143102007F0FEFB7D4AB06ABC
:20079C001268C0F30351C0F30344520813D2DBF80020130511EB237103D41029A8BF0F2141
:2007BC0000E05146120414EB227403D4102CA8BF0F2400E0544644EA011400F47F4200F0EC
:2007DC00FF01B9F1220F42EA044241EA020124BF00F0804001430C2007F0CEFB954CB9F134
:2007FC00220F32BF01202068C0F30070B9F1220F4FEA400040F0200085F8090126BF206857
:20081C00C0F3407001208D4EB9F1200F40F0100085F8090138BF514606D33168C80C00F4F5
:20083C004070C1F384510143282007F0A5FBB9F1200F26BF3068C0F301505046B9F1220F75
:20085C004FEA400040F0600085F80C0126BF2068C0F3C0605046B9F1220F4FEAC00040F00F
:20087C00800085F8010126BF2068C0F345505046B9F1200F4FEA800040F47C40A5F89C0156
:20089C0038BF6F490AD3306801038A15920501F47C1100F00F00114341EA0031082007F08E
:2008BC006BFBCC3F4FF480002860664AB86D40F21E216FF31F40814216D93868030E03F003
:2008DC000F0113F00F0FC0F3034018BF491E072805D006280EBF0720801C00F00F0041EAAB
:2008FC000011A2F108000170DDF804C0CCF381477F1E02D07F1E31D02CE02068810C29D276
:20091C004FF480412960D2F80210430AC0F3033703F0800321F08F010B4347EA0301C2F8C4
:20093C000210D2F80130060A66F30303C2F80130116800F0E70721F0E70147EA01000CE0C6
:20095C009402224300600C4040100940AC3F0050156208404FF000402A461060054800682D
:20097C00C0F3C0070FB94020A8624FF40070286402E0C046B03F005020684027C0F3C140A6
:20099C0040F0300085F8C800CCF3815080B3401E08D0FFE7401E23D0022122E08813005056
:2009BC0000002043012007F06BFE06460420314606F0A6F9042007F063FE8642FAD1224842
:2009DC00066826F07F4007F0EBFCD8F81400036807214FF06022300E98474FF480602860DA
:2009FC000321042006F08CF909E0C0462C2009400420012106F084F9144807F0D1FC203C5F
:200A1C00206800F03F0085F8CB0FD8F80030124ED96830680220884710480D4C0760012148
:200A3C002160BDE8FE8FC0460000094094042A43FCFCFC008C13005040A00C409813005089
:200A5C0000803F400A600840A83F0050BD37860094046042A40100102C20094000600C40E8
:200A7C002DE9F04F08250127ADF1340DADF800506846ADF8027007F0FDF9CB4C9DF804007A
:200A9C002070029804F12C060021A060304600F025FAC64941F28832042304F16400E66081
:200ABC0006F0AAFC00261F200621666007F0C8F95020ADF81A008DF82270ADF81860394692
:200ADC008DF823700DF12202ADF81E604FF44870ADF81C004FF47A70ADF8200040F2053088
:200AFC0003F08AF940F20630022106AA03F084F94FF44270142104F1380203F07DF940F2C5
:200B1C000730072104F11C0203F076F94FF4447039460DF1230203F06FF940F2113002215B
:200B3C000DF11A0203F068F940F21230022107AA03F062F940F2133002210DF11E0203F0EC
:200B5C005BF94FF44570022108AA03F055F9DA49032007F005F80620A02107F071F907206E
:200B7C00A02107F06DF92846A02107F069F90920A02107F065F98DF8247038468DF82570C3
:200B9C00B0468DF827000421CDF8148005AA8DF826804FF4816007F039F94FF48060394650
:200BBC0009AA07F033F940F2024039460DF1250207F02CF940F2034039460DF1260207F0FE
:200BDC0025F940F2064039460DF1270207F01EF9032007F087FA042007F084FAB748B84A7A
:200BFC00132106F091FE4FF0040BB64EADF800503078ADF802B080000190684607F03AF9F1
:200C1C0000280CBF029B4346AF4FFB6083B1327842B14FF6FF711B1F404623F8041F521E52
:200C3C009870FAD1A94A07F11000112106F06CFE98A008F03DF908F073FC8DF828808DF8B9
:200C5C0029800E208DF82A5014238DF82B000AA98DF82C30404606F07DFD01200DF12901E8
:200C7C0006F078FD02200DF12A0106F073FD03200DF12B0106F06EFD58460BA906F06AFDDF
:200C9C0004F11800B378B86033BB04F1140096F801A096F803907062182007F094FF071CEA
:200CBC001AD05946424608F08FFA504607F0B7FE387287F8099087F80A8006F14800F860E2
:200CDC0006F158033B6106F120027A6107F08BFF7F4A394606F062FF0C2007F074FF071C3D
:200CFC000BD001215A4608F083FB04F12400B86007F079FF394607F097FC0120102107F0D3
:200D1C000BFA0220102107F007FA724942F22F0007F03AFD0A20ADF80200ADF800504FF016
:200D3C00FF370197684607F0A5F8002840F0A78000200490ADF800500927ADF8027068466A
:200D5C0007F098F8DDF808800028CDF8108040F09180BDF804004FF00109102856D12078DC
:200D7C009DF80610884251D1464630884FF6FF7181421DD03078B02848D1707816280CD17B
:200D9C007088294607F0F8FB38B9484607F0D0FC04984FF00009206138E0317906F108007E
:200DBC0008F094F832E0C046EC050020BD910000708800092AD3266946B36078B6F802B05E
:200DDC00401C607096F804A0102007F0FCFE0836071C1BD00221152208F00AFBA7F808B07E
:200DFC0087F80AA0FE6007F0FEFE3B4A394606F0D5FE0646162E09D0042E07D020694088CD
:200E1C00002107F0B9FB304607F092FC0498002830D0B9F1000F2DD0404608F087F829E06F
:200E3C00E068064600F05EF8864208BF002702D0876808F06FF8381C1CD03888401E0DD0AB
:200E5C00401E0ED1B87818B1401E0AD1012000E000200DF12D0107F0EBFA02E0B87804F0D8
:200E7C00C5F9ADF800500520ADF802000197684607F000F8E06800F039F80028D0D0608889
:200E9C00C108FFF447AF20F00400608008F006FB40E7C04644657669636520496E69743A2C
:200EBC0020436F6E6669677572696E67204368617227730A00C046C0CB950000800C002067
:200EDC000C9C000008020020440F0020189C0000D7950000AF950000D5930000DFF800F01E
:200EFC00F1B80110DFF800F00DBF0110DFF800F00FC10110F8B501460888A0F6020058B1AB
:200F1C0043F20402801A04D0401E64D191F8246000E00226CF6901E0CE7B4F69002F5AD0F1
:200F3C0000213C1F052244F23805084654F8043FB3F1FF3F4FD01B041B0C9D4206D0521E36
:200F5C0001F1040100F10100F0D144E08446BCF1050F40DA7A58224B3046C2F30344401FF2
:200F7C0017D01E49401E0FD0001F0BD0801E07D0C01E0AD00F381ABF191C6031091D04E0B3
:200F9C00091F02E0083900E00C390868C0F3834003E019460868C0F303200F2806D0A04268
:200FBC0017D922F4702242EA004210E0761F0AD0761F08D0761F06D00F3E1CBF22F4702208
:200FDC0042F4802203D122F4002242F4E02247F82C200020F8BD0120F8BDC0460411005038
:040FFC00201300506E
:201000003C000000000000000000000034100000000000000000000001000000000000004F
:1C10200000000000000000000000000001000000000000000800000000000000AB
:20103C003400000000000000000000006810000000000000000000000100000000000000E7
:14105C00010000000000000000000000080000000000000077
:2010700030000000000000000000000098100000040000000000000001000000FFFFFFFF87
:10109000FF00000001000000080000000000000048
:2010A0002C0000000000000000000000C4100000040000000000000001000000FFFFFFFF2F
:0C10C000FFFFFFFF080000000000000020
:2010CC0038140000E410000095A1011091A70110A1C2011009B2011041B8011000000000EA
:0810EC000000000030000000CC
:2010F400280000000000000000000000141100000000000000000000FFFFFFFF0000000093
:081114000800000000000000CB
:20111C00341400003011000065C2011069C101101BC2011091BA011000000000000000006D
:04113C002E00000081
:20114000341400005411000071C20110A5B6011099BF011045B601100000000000000000BD
:041160002F0000005C
:201164002400000000000000000000008011000000000000000000000000000008000000AE
:041184000000000067
:20118800240000000000000000000000A41100000000000000000000000000000800000066
:0411A8000000000043
:2011AC00240000000000000000000000C8110000000000000100000000000000080000001D
:0411CC00000000001F
:2011D00000000000DC16002004000000000000000000000020000000701000003000000019
:2011F0001C110000E41600200400000000000000000000000C00000030130000180000002D
:2012100040110000EC160020040000000000000000000000240000004813000018000000B0
:2012300000000000F416002004000000000000000000000010000000A01000002C00000084
:20125000CC100000FC160020040000000000000000000000200000006411000024000000B3
:20127000FFFFFFFF041700200400000000000000000000002800000088110000240000003E
:20129000FFFFFFFF0C170020040000000000000000000000580000003C1000003400000023
:2012B000FFFFFFFF1417002004000000000000000000000010000000601300001800000038
:2012D000FFFFFFFF1C1700200400000000000000000000001C000000AC11000024000000AE
:2012F000FFFFFFFF2417002004000000000000000000000038000000F4100000280000001F
:20131000FFFFFFFF2C17002004000000000000000000000054000000001000003C000000BA
:1813300018000000000000000000000040130000080000000000000032
:1813480018000000000000000000000058130000080000000000000002
:18136000180000000000000000000000701300000800000000000000D2
:0813780001000000849C00004C
:0413800030BF7047C3
:041384000100000064
:0413880000000E0053
:04138C0000000F004E
:041390003200000027
:041394000100000054
:0413980030160020EB
:04139C00000200004B
:0413A0000000000049
:0413A400FDC901106E
:0413A8000000000041
:0413AC00000000003D
:0413B0000800000031
:0413B4000000230012
:0413B800D814002025
:0413BC00010000002C
:0413C00048160020AB
:0413C400080000001D
:0413C8000000000021
:0413CC00000000001D
:0413D0000000000019
:0413D400080000000D
:0413D8000000000011
:0413DC00000000000D
:0413E0000100000008
:0413E4004015002090
:0413E80006000000FB
:0413EC0001000000FC
:0413F0004414002081
:0413F40000000000F5
:0413F80000000000F1
:0413FC0000020000EB
:0414000000000000E8
:0214040070472F
:021406002A00BA
:021408000100E1
:02140A002600BA
:02140C002E00B0
:02140E002F00AD
:021410003000AA
:021412000100D7
:0114140001D6
:0814180003000000309C0000FD
:081420000000000000000000C4
:0414280000000100BF
:04142C0000000300B9
:0414300083C4011060
:041434003C14000064
:041438003C14000060
:04143C0000000000AC
:041440009000000018
:041444009000000014
:0414480000000000A0
:04144C00481600201E
:0414500045920000C1
:041454002000000074
:04145800EC9B000009
:04145C00809B000071
:0414600009C30110AB
:04146400AF75000060
:041468006785000094
:04146C0095C801100E
:0414700097C8011008
:041474000000000074
:04147800059A0000D1
:04147C00B89A00001A
:04148000D09A0000FE
:04148400A09A00002A
:0214880008005A
:02148A00090057
:02148C0001005D
:02148E0000005C
:01149000015A
:041494000000000054
:041498000000000050
:04149C00000000004C
:0414A0000000000048
:0414A4007F9600002F
:0414A800857D00003E
:0414AC00F18A0000C1
:0414B0009D8100001A
:0414B400BD7D0000FA
:0414B800F1770000C8
:0414BC00A16100002A
:0414C0001B94000079
:0414C400516F000064
:0414C800158B000080
:0414CC003195000056
:0414D0000800000010
:0414D40024000000F0
:0414D80018000000F8
:0414DC0028000000E4
:0414E00020000000E8
:0414E4003C000000C8
:0414E8000C000000F4
:0414EC0034000000C8
:2014F00021B10969814201D10120704700207047F8B505460C4608F098F80646002705E02A
:2015100021462846FFF7ECFF00B127462468002CF6D101F033FA3846F2BD0021DFF8480CD1
:2015300000EB811090F83F301A0603D5491C0829F4D3002070472DE9F84304468946164636
:201550000027DFF8240C00EB871808F13C05B5F900204A4509D141462046FFF7C1FF20B1DE
:20157000300008D0E878304205D17F1C082FE8D30020BDE8F2834046FBE72DE97043064667
:2015900014461D4608F051F86EB1D6E90A2322432B43C6E90A23D6E9088948EA040449EAC6
:2015B0000505C6E90845BDE8704308F051B910B50129044698BF012108F02DF82046BDE8E1
:2015D000104008F02AB838B504460D4601F033FCA04231BF241A641E241A641CA40805F531
:2015F0007A70A04238BFB4F1405F05D2641B012C98BF0124204632BD002032BDF8B504467A
:20161000DFF8DC0B40690025F0B1C368197B012501F00F01022914D10069DFF8C86B0169BA
:20163000C08A96F8627041181922986802FB0711FFF7C9FFDFF81C1C20600A68B0FBF2F0FB
:2016500002E00023236000E020602846F2BDDFF8981B0A680020D30705D5DFF8FC0B00685F
:20167000C00900F001007047F8B500F0CFFA0546002C1CBFA07A00282AD094F909600127D7
:20169000FFF7E5FF07FA06F658B194F90900DFF8CC1B4A68113007FA00F0C04302404A6033
:2016B00008600020A072207220606060C4E90400DFF8AC1BA06194F909000A788740174325
:2016D00088780F7008B1401E8870F0B200F0A1FA2DE1032804DADFF80C1B01EB4010704737
:2016F000002070472DE9F0410025DFF8F88ADFF86C6B0127E8B2FFF7ECFF040034D0A07ACB
:20171000012831D194F90900113007FA00F0C143316072681043706094F9090007FA00F0AD
:20173000C0B200F067FA002104F1100001F05EFA812809D1A06920B1002101F057FA8128FE
:2017500002D10220A0720FE081280DD098F8610094F9092011219140084388F86100002106
:20177000DFF8180C07F079FF6D1C032DC2D3BDE8F0812DE9FE4F0C466FF001018DF80010E0
:2017900083469046994607F050FF01900025DFF8D06A012796F800A0AF401AEA070F0CD073
:2017B0004FF0FF32914518BFA94506D1E8B2FFF790FF10B1817A00294AD06D1C032DE8D3A5
:2017D0003FE0022918D140F20361218294F90910628A491D61F30B2262824179628A61F336
:2017F000C70262828179628A61F34E326282C079618A60F30C31618200220D9878B102788D
:20181000417894F90900520142EA8102401D42EA00224FF6FC710A40DFF8640B0243A26132
:201830005FEA0802DFF8B81918BFC4F80480486B08B922684A6300F055FA94F909008DF881
:201850000000019808F004F89DF90000BDE8FE8F2AEA070737700122827245722146B278FB
:20187000521C0446B270C4F800B021720FF6C500217A606001290C98A3D194F909200A2137
:20189000521D2182A27480686061B5E738B504281BD1DFF84C4904F1E405284607F0D3FC48
:2018B00098B1284607F0B5FEDFF8A8190A685043B0F5967F09D2284607F0B1FE052006F056
:2018D000A5FD0120607300F039FA002032BDF8B500F09CF9DFF80C7907F188060546307B26
:2018F00020EA040434730024B86E20B1803007F0AAFC00B10124F86E20B1803007F0A3FC64
:20191000044314D1307B002808BF002C0FD1306868B190F824108A0709D5046A00F01DFD91
:20193000306800220221A04700203060F1BD2846BDE8F24007F08CBF024609691269002099
:201950008A4218BFC86870472DE9F0410546080014460CBF4FF001084FF00008002C0CBFA8
:20197000012600266DB3310004BF696B002928D000281CBF416B00290CD02F6BBF08A7EB5A
:2019900091072946FFF7D8FF00F01FF888BF4FF0010802D85FEA080013D094B1E068017BB6
:2019B00001F00F0102290CD1276B686BBF08A7EB900721462846FFF7BFFF00F006F888BFFB
:2019D000012608EA0600BDE8F0813F1A07F18057B7F1805F704791F83E1090F83E008142FC
:2019F0008041C00F70472DE9F843DFF8F46775698946716A8046FFF773FD0024012738B124
:201A1000716A4846FFF7E7FF0027002800D0746A85B129464046FFF763FD48B129464846FD
:201A3000FFF7D9FF002708B9002401E004B92C462D68EDE707B14C4601F08DBD002280B567
:201A5000012908BF0122012100910123B0F93C10006901F047F802BD2DE9F843DFF880771F
:201A70007C6988461646994607F11401FFF740FD002568B97A69AAB1796A3046FFF764FFF2
:201A900080B101250024C9F800402846BDE8F2830446226821463046FFF756FF08B1022556
:201AB000F1E72468002CF4D131464046FFF79BFF040003D0B442E6D00825E4E7F068017BE5
:201AD000BC6901F08F010229DDD14CB9786A0028D9D0796A00223046FFF736FF0028D2D14E
:201AF0006FF00200D2E77CB51546002200920024DFF8EC6609B36B462A46FFF7ADFF044666
:201B1000012C05D1294606F1140007F040F819E0022C09D100980268002A294606F1140062
:201B30000ED007F012F80DE0082C05D195F83E100098FFF783FF00E024B9294606F114009D
:201B500007F014F8204676BD38B5DFF8844ADFF890566069002161610022E068E16005F13D
:201B700078000FF2096107F066FD002007F062F807F008FBA96B814231BF401A401E401AD4
:201B9000401CA9684FF0FF32A2EB10328A4234BF4FF0FF3001EB1030A860287B20B1286C20
:201BB000A968C00288421ED2FFF751FDB8B1DFF8240A40F60901018000224280417B01F084
:201BD000F00141F001014173017B01F0F00101734260E2612060418811F4406FFBD001207D
:201BF00000212873A96005F02BFFDFF8EC190020086031BD10B500F009F8DFF8E4150A7C93
:201C100014430C74BDE8104007F022BE044607F00CBD38B5FFF7FAFF0546DFF8C405017CC3
:201C300021EA04040474027C110703D40821443007F013FD2846BDE8324007F009BEDFF8DE
:201C5000A0150A7C104070472DE9F84F0546002129606846FFF7D2FC044600264FF0FF3A86
:201C70000027DFF8F095DFF87CB5DFF87485F8B2FFF72FFD00281CBF817A002917D0017AA4
:201C90000126022922D0D8F834201169D28A9BF8623040695118192202FB0311FFF793FCEE
:201CB000D9F80010B0FBF1F0504598BF82467F1C032FDCD330460CE0296002E008B1C5F834
:201CD00000A0204318BF0120BDE8F28F01204FF0000A002CF2D000280099EDD05145EBD9A3
:201CF0005146E9E77CB5DFF8F8442178022903D1192007F09EFC73BD217801291CBF207861
:201D100004281AD007F091FC05466846FFF79CFF04F1E40660B1009820B101463046FFF783
:201D300046FC08E0304607F07AFC00F007F802E0304607F074FC00F010FB73BD042104F193
:201D5000440007F08ABC30B5014600228B68487D5A8040F602051C88641B09D041F21E0583
:201D7000641B05D041F6E675641B012C11D920E01C8A4FF6FF3214401C8220B14FF60F4064
:201D900004401C8215E02D20224660F309121A820FE01C8B4FF6FF3214401C8320B14FF688
:201DB0000F4004401C8304E02D20224660F309121A830020487530BDF8B5DFF824546C69A2
:201DD000F4B1A86A002872D1686A90B1686A0169206981426BD194F83F10C80667D5696A42
:201DF000CA6850880028FAD0686AC16848880128F5D020696A6B904204D04FF4806152E0C4
:201E1000022150E06846FFF7F9FB00281CBF0098002809D0686A002804BFA86A002803D160
:201E30000820FFF7F6FEF1BD0820FFF7E3FE94F83F00C10605F1140003D506F075FEA862EC
:201E500002E006F071FE6862D4E90601C243DFF80C64B260B1680142FBD1F268D4E90601F9
:201E70000243F260D4E90623DB4333607768D4E906010F437760E468204606F04BFD2088C0
:201E900040F60201401A08D041F21E01401A04D041F6E671401A012803D82146012000F0E3
:201EB00036F94FF0804105F1440007F0D6FBF1BDCB48416B8A6801F13003506830B19842EA
:201ED00018BF0246F9D101E000207047507B10F00F0F02BF488E40F609018842F4D10120E1
:201EF0007047F8B5BE4EDFF8780B756A07F0ECF90446DFF8EC0B0268076802F020022240E6
:201F100018BF002D07F460270BD01346F56200222846FFF732FB4FF4804106F1440007F0B7
:201F30009CFB3C400DD0AF4890F8611041EA544480F8614006F19400BDE8F440002107F059
:201F50008CBBF1BD2DE9F843DFF8988298F86100002448B1002698F861000121B1400842B8
:201F70000ED1761C032EF6D398F8610030B1BDE8F4430021DFF8040407F06FBBBDE8F183FE
:201F900098F861001021B140084218BF012407F04CFB98F861101122B240914388F86110AF
:201FB00007F056FCF0B2FFF794FB02001CBF907A0028D9D092F90990DFF88C1C01EB8901D0
:201FD000002C0F681668556804BF107A022803D1D2E90401C3000CD41046FFF745FB44B1E4
:201FF0000020009000224FF0007349463046A847BAE7009700224FF00063F6E72DE9FE4329
:2020100025A1DFF8DC91DFF8D87AD1E90023CDE900234FF0000800255DF82560306858B3DE
:202030003268D2E9060106F0DBFF0446306822460023FFF7A2FA14F00A0F17D03268BB68A4
:20205000D2E9060120F002008343BB6048F0020832683B68D2E906018B433B6009F11C00FB
:20207000316806F083FD0020306005E024B13068C9F82C0048F480486D1C012DCCD95FEAA9
:2020900008011CBF09F1440007F0E7FAFFF72AFBFFF792FEBDE8F783FC21002000220020F7
:2020B000DFF8880CB0F93010B0F93200814204BF0820FFF7AEBD70470720FFF708BCF8B58D
:2020D00006460F46D6F870C014461D46BCF1000F18BFE047D6E91A0104400D4008BF002C7C
:2020F00014D001F037F8C6E91E4538B1D0E90823A243AB43C0E90823316F8160002030670E
:2021100006F14800BDE8F24007F09FBAF1BD38B50A46DFF8381B4B681C001CBF8968014256
:2021300006D02F4D0146686B01B0BDE83040184731BD0000704780B507F08DFADFF8EC2BB8
:202150000146506B5268BDE808401047DFF8DC0B0FF28D424168914208BFFFF7C3BD042103
:20217000443007F07ABA0000D81D002038B54FF0FF3006F035FF1A4D0FF2654104466868EE
:2021900088420FD10022DFF8A81B05F1780007F052FA02202870FFF78BFE18B9FFF7A2FA7C
:2021B000FFF70AFEDFF8D80C044207D005F14400BDE834404FF0005107F04FBA31BD80B533
:2021D0004FF0FF3006F00CFF800707D5BDE804404FF40061DFF8AC0C07F03FBA01BD000053
:2021F000D8210020E025002040210840F8B5DFF83C1BDFF8DC734A6B51684D688C68CE689A
:2022100001280DD1200001D1300004D00020F861DFF8201B3960280005D006F04DFA01E072
:20223000280000D0A847200001D1300010D0F8690028FCD00021F961200018BFA0473000C7
:2022500018BFB047BDE8F240DFF8E00C06F062BBF1BD0000DC250020000004400810044084
:20227000402600202DE9F041DFF8C07AFC69ECB1E168082040F6030340F60405E9B1C2B274
:20229000DAB10A889A421EBFAA424968401EF5D10EE014F1010F09D0D04A1168B4FBF1F197
:2022B00007F58470BDE8F041FFF781B9BDE8F08120691822303003F0A1FDD4E90A234FF025
:2022D0000008C4E90A88A06858B1B4F93C1013F0E2402069A5681CBF02F0000203F0E243FB
:2022F000A84707F0A2F90546788E401CC0F30B00788684F83F8007F11C0006F015FC00F09E
:202310002CF8B7F93200B7F930108842CED1DFF8200C7A6B856EC66E92F8A41000240520B8
:2023300001B10720FFF7D3FA2DB195F8A40000B92C6885F8A4803EB196F8A40008B9D6F844
:202350000080002086F8A400444538BF4446002C9FD1BDE8F0410020A2E6284607F078BAF0
:20237000DFF8C82911780020022904BF516A002902D1916A01B90120704700006C220020FC
:202390000100040638B50D46A807DFF8A0490ED5FFF768FFE06938B145F0020104F1440090
:2023B000BDE8344007F059B9BDE831409AE4680752D506F0E7FEA063606988B10569606BA8
:2023D000002818BFA8420AD095F82400410704D52B6A002204212846984701206875656369
:2023F000606B4168DFF84C0B0A780260022006F00DF8112003F0B8FA0121DFF85028217052
:20241000907810B90E2003F0AFFA606B704A41688868002804BFC868002804D00021D16189
:20243000DFF81009106007216B4B19600021506951619069916150690FF2210140F0804092
:2024500040F00200506161601A2007F0F0F8BDE83240192007F0EBB831BD0000890000D47A
:2024700070472DE9F843804684B00020FFF7BEFE574DDFF83C1C574F0020E86129600120EC
:2024900006F0D8FB40F60A063E8000207880397B01F0F001397378604046797B01F0F001D1
:2024B00041F001017973FFF74EFCD8F808904C4640F6040140F60302606800281CBF0388E7
:2024D000B34218BF93424DD08B4218BF0446F3D148E0B8F83000B8B10021A8F83210C8F848
:2024F000341008F13C004278017802F0F00201F0F00142F001020170427008F13000786001
:20251000797B01F0F00179736946484603F03CF8684606F0E1FE00F02BFA0FF2C502726053
:20253000707B30B105F0AAFA0028FBD007F089F80DE0012006F0AAF8012808D0607B00F049
:20255000F00040F0010060730FF2410070600021E961C5F8009049460120FFF7D8FD05B07D
:20257000BDE8F0836760607BDFF8C06700F0F000607370690028ACD0C0680088904218BF0A
:202590008842A6D10021B163BEE70000DFF8C00B014200D17047012010B506F077F801282F
:2025B000DFF8884708D10FF239000A4A606000210748C161026010BD08490A683220B0FBBD
:2025D000F2F104F1E400BDE81040FEF7F0BF0000001004408C26002000000460DC250020EB
:2025F0002DE9FF47054688465FEA4840DFF83C7729D507F01AF8FE6A06B3D6E90A2302F0F5
:202610000A0413F0E04508BF002C17D1D6E90A45D6E90A23A243AB43C6E90A2307F018F9E8
:20263000B06868B1002D08BF002C09D0B6F93C1030692246B4682B46A04701E007F008F917
:2026500028F4804878E15FEA88006FF4807449D506F0EBFF8246042006F018F800281CBF12
:20267000287D002820D0B86BF0B12E69814606F089FD814531BFA0EB0909401EA0EB0900AA
:2026900000F101094FEA1930B042286102D2064476082E6140F699012869A0F59670884241
:2026B00024BF40F6C4102861504607F0D1F8FFF7FFFB68B12146EC6900224FF00073284637
:2026D000A047786910B1FFF70DFB01E048F00208AC6900224FF0806300212846A04728F059
:2026F000005829E15FEA887007D5FFF7BBFDF869002801D128F002081EE15FEA485007F544
:20271000847575D506F091FF0646FFF729FE7C69012868D1002C66D0042038700022DFF809
:20273000441B07F1780006F086FF00F027F9284606F075FF06F026FDF8632069786390F8F7
:2027500024104A0703D5036A0022042198470120FFF74CFDDFF8105BDFF854190020E8612A
:2027700029600122786B4275FFF7EDFA7A6B9668314640F6040340F6030C40F60A09486851
:2027900000281CBFB0F800E0CE4518BFE64503D09E4518BF0146F2D1D8E0108E98B102F160
:2027B0003000002242804260027B02F0F0020273427B02F0F00242F0010242734860487B87
:2027D00000F0F00048736946304602F0DDFE684606F082FD00F0CCF8E9612E603146012015
:2027F000FFF795FC01E000F0C9F828F48068A3E05FEA085027D5FFF75BFB30B1786B214615
:20281000C46900224FF00073A047F86B68B106F0B9FCF96B814231BF401A401E401A401C14
:20283000796B000BC8600020F8630022DFF8001507F1780006F0FFFE0220387028F4006837
:20285000FFF750FA78E05FEA08706ED506F0EDFE0446FFF785FD00285FD0387C01075CD4E6
:20287000387C010659D46846FFF7EEF910B10098002852D0DFF8B81691F8610000284CD15E
:202890000026F0B2FEF725FF00281CBF817A002908D00122827290F9090002FA00F1C8B238
:2028B000FFF7B7F9761C022EEBD903203870284606F0B5FE204606F0CBFFFFF745F900217F
:2028D0000220FFF724FC022005F090FB112002F091FF787C18B9786B483006F0B6FEDFF8BA
:2028F0006C13887810B90E2002F084FF787B20B100217973052005F079FBDFF8600C786063
:20291000002139700220B7F93210B7F93020914208BF0720FEF7DBFF02E0204606F098FF64
:20293000FFF7E0F928F0080806E05FEA480003D5FFF7D8F928F08048B8F1000F04D0414687
:2029500007F1440006F089FEBDE8FF8700204860487B00F0F00040F001004873E06800885C
:20297000604518BF98427FF418AF0020F8632AE7E8690028FCD00021E9617047304606F058
:2029900067BF38B584B002F02FFADFF8D40BAF4D0168DFF8984341F002010160684606F0BF
:2029B000ABFC6878DFF8BC1B02906A4604F1440005F0A0F86A46DFF8B01B04F1940005F0FA
:2029D00099F8684606F050FC2878DFF8A02B01906B46192104F1780004F022FF6B46DFF89E
:2029F000902B1A2104F1C80004F01AFF00230022DFF8641C04F1E40004F0D0FB002300228E
:202A1000DFF8581C04F5847004F0C8FB0023DFF8502C042104F5967005F090FFA878012850
:202A300004BF0E2002F0A0FF04F11C0006F09FFB04F1140006F09BFB00202070A081A060FD
:202A50000721DFF8EC2482F86010A06300210520E1632064217405B0DFF8000B606030BD83
:202A700020000E002DE9F84FB04F7C6983469246984600260D4600E0246884B3AC42FBD182
:202A90006CB3D4F8009021465846FEF729FD08B300224FF080532046FEF76FFD5FEA080084
:202AB0000DD000224FF080732046FEF766FDDFF8B40C027B2969016042F0010202732146FF
:202AD00007F1140005F0C3FF214607F11C0006F04DF8761CBAF1000F18BF4C46D0D121E214
:202AF0000C1004402DE9FC4E14460327002C82469B4614BF4FF080494FF000590E4606F0F0
:202B100094FD4FF0FF318E420090884D0FD1696A5046FEF7E5FC08B16E6A0EE0A96A504629
:202B3000FEF7DEFC00280CBF6E69AE6A05E0002231465046FEF7FFFC0646002E4BD096F8AD
:202B50003F00010646D50A9F686A86421CBFA96A8E422BD1686A00224B46FEF70EFDA86A70
:202B700000224B46FEF709FD002C14BFDFF8F80BDFF8F80B05F0CEFE38000DD0686A00F04C
:202B900030F8A86A00F02DF8DFF8D80B027B3169016042F001020273BBF1000F18D0696985
:202BB0003B465A465046FFF75DFF11E03B465A4631465046FFF756FF60B1287801281CBFDD
:202BD0002978042904D0AE4905F1440006F045FD832700E00427009806F03AFE3846BDE83C
:202BF000F68E00224FF08073FEF7C7BC10B50C46DFF87C1B0A78022A0BD105F08BFE04B133
:202C1000206000F0FF00012801D1812010BD022010BD012010BDF8B504460D46164606F053
:202C300004FD0746DFF8480B416B8C4218BF032404D131462846FFF7D9FF0446384606F04E
:202C500007FE2046F2BD000094300440009C0000F0B50746DFF81C0B87B00E0015460068AE
:202C700018BF002D1C465ED03178C840C2075AD500212846FEF744F9BD607E6006F0D5FC84
:202C90002A4E0546707C02284BDA08B9FFF779FE707CA74901EB8003401C9F667074FFF772
:202CB0005CFB34B968460FF608311C2203F0A6F86C46206838604FF4FA71F960A069786249
:202CD0000120218A7875F9826068002812BF002140F6C410012139753861DFF89C1AE06886
:202CF0000A460B4600B10146F961606900B102463A62A06800B10346BB61782107F1300094
:202D100003F0D6FB002107F1480005F001FD00230022DFF8681A07F1800004F03FFA3846CA
:202D300002E0FFF71AFB002007B0F0BDD82100200D2000005100070670B5DFF8344A617C17
:202D5000002977D0B4F93010B4F932209142054619D004F11401FEF7CBFB58B9616A2846F1
:202D7000FEF7BEFB002811BF606A04F11C012846FEF7BEFB38B1B0F93C100A224FF0E04339
:202D9000284600F097F906F050FC06466848816E8D4207BF002282660021C166607C401EE7
:202DB0006074C0B2A8BB6563207802280DD10820FEF72FFFFFF7E2FD4FF0FF3105F1480025
:202DD00006F026FA06F031FC064604F1440006F03EFC04F1780006F026FC04F1940006F0F1
:202DF00036FC04F1C80006F01EFC04F1E40006F00EFC04F5847006F00AFC04F5967005F00E
:202E100039FFDFF87C098178012904BF0E2002F0F1FC606BA84204BF00216163FFF7AEFD1D
:202E300005F1480006F00FFC05F18000BDE8704006F0EDBB70BD70B506F0F7FBDFF8301980
:202E50000A78022A05D1DFF83C190C6806F000FD14E006F0FDFC06F095F910F50030DFF8D8
:202E70002829DFF8286941F10001A2FB004502FB01553169002024184D412C46204670BD98
:202E9000020000401C2200202DE9F84F80460D4693469A4606F0C9FB8146FEF73EFB0400A0
:202EB0006FF001063BD0DDE90A670095DFF8C05805F5847006F0B3FB288E401CC0F30B0074
:202ED000288604F13E020098E06082F800B0C4F808A02B8EDFF8B80820213040A387C4F8B2
:202EF0001080394040F00200C4E9060100230020C4E9080020634FF0FF316363A16380207F
:202F1000507088F8A430214605F1140005F02EFE6869A04208BFFEF7E5FEB4F93C604846D2
:202F300006F096FC3046BDE8F28F000001000706E0250020D02108400021017101604FF0BE
:202F5000FF33836070472DE9FE4F82468B461746994606F06AFB02906FF00108DFF84015DC
:202F7000886E824506BFCA6E00920090009801F1880660B1803006F066F940B1307BC6F8DD
:202F900000A040F004006FF0020830737CE0FEF7C4FA040078D0019704F13E05DFF8D077F8
:202FB00007F5847006F03BFB388E401CC0F30B003886C4F80CB04FF00008019801792970DC
:202FD000C4F808902021388EA087C4F810A0DDE90C23DFF8BC0710401940C4E90601C14600
:202FF000C4E90889C4F83480C4F83080019A9368A36385F80180019B1A6802B162639BF8E4
:203010000C2002F00F02022A04BFDBF8082022630823DBF80420002A1EBF002B93465B1E5C
:20303000F7D137E040F00200C4E906013268524505D1307BC10744BF00F0FE003073009914
:2030500022465046FEF74FFD10F1020F18BF10F1030F0CD1398E4A1EC2F30B023A86C6F8D9
:2030700000A08046317B41F0040131730CE0B4F93C80687840F0800068708AF8A490786900
:20309000A04208BFFEF72EFE029806F0E1FB4046BDE8FE8FBBF8002002F47C42B2F5305F75
:2030B000C0D16A7842F010026A7040F00800BBE701010E042DE9F0410F46390014461D46EF
:2030D00001D500200FE0064606F0C3FA804600F041F8070003D097F83F00010605D44046FF
:2030F00006F0B2FB022000212FE0D7E9080144F00A0445F0E0452040294008BF00280FD0CF
:20311000404606F0A1FBD7E9080120402940C6E91E01D7E9082382438B43C7E9082312E0DC
:20313000B968DFF87006814202D0BB683367B860C6E91A45404606F087FB4FF0FF3106F135
:20315000480006F065F8D6E91E01BDE8F081000004000020802239463046FEF7ECB9DCB5EA
:2031700000F011F8FFF790FE04E0DCB500F00BF8FFF7E9FE0146204602B0BDE8D0400A223D
:203190004FF0E04396E7DDE90667CDE900670446704770B5FEF73AFD0546DFF8D4654FF004
:2031B000FF30B06004F1800006F039FA00F025F810D1307802281EBFDFF8DC1591F89400A0
:2031D000002807D0FFF7C9F80720FEF780FB06F02CFA054600F011F807D106F5847006F075
:2031F0001EFA0820FEF715FD02E0012084F8A4002846BDE8704006F02BBBB6F93200B6F926
:2032100030108842704780B5930803F001030093530803F0010302F0010207E080B5930885
:2032300003F00103009302F001020123FFF75AFC02BD0FF27C511C2202F0E0BD01E0000054
:2032500000BF0022E7E480B56A46DFF85015FFF7E2FC812803D100980002001602BD6FF072
:203270007F0002BDCF210000001004402DE9F0478A461446832606F0D8F9DFF82492DFF871
:20329000F074BAF1050F804609F1600500F2A280DFE80AF0030B0E23151A786A00280FBFBB
:2032B0008026786A818F218095E02878208092E0397802290CBF0120002020708BE0A868AB
:2032D0002060E968616086E0A86800B1C0682060E86800B1C06860607DE02468C82120465C
:2032F00003F0E6F822464FF0000C142302F1080A05F1080103FB0CF051F82C40111D02F12F
:20331000100E0C500C2101FB0CF149440CF1010C91F878400EF800404C6F4AF80040096F2A
:203330000C1902F10C01BCF1010F0C50E0DD786AA8B1796A0C6903FB0CF0111D0C50796A88
:203350008C8F1452796A00F04BF8796A0C6B02F108010C50796A4C6B02F10C010C500CF121
:20337000010045B2B86AA8B1B96A0C6903FB05F0111D0C50B96A8C8F1452B96A00F030F8D6
:20339000B96A0C6B02F108010C50B96A4C6B02F10C010C50681C79694FFA80FCD9B1BCF193
:2033B0000A0F18DA03FB0CF00C69171D3C5002F110078C8F145291F83E403C5402F10804A2
:2033D0000D6B255002F10C044F6B27500CF101000968E1E7032600F0CDF83046BDE8F08715
:2033F00091F83E4002F110010C54704780B58022FEF7A1F800B1C06802BD10B504460C2162
:2034100002E010B50446082103F052F84FF0FF32227110BD0021017041707047E0B500F0F6
:2034300009F8012103E0E0B500F004F80221FEF7A0F90EBD0192009191F904300A6870476E
:20345000F8B505460C4606F0F0F80746E0B2FEF740F9802604001CBFA07A00281BD0C44968
:203470000878022811D194F90910491D0906090C41F08161002241F001012846FFF7CBFBEE
:2034900006462046FEF7F0F805E02046FEF7ECF8FEF728FC8126384606F0DAF93046F2BD3D
:2034B000E02500202DE9F843054689461646832406F0BBF8B9F1080F8046AD4F48D8DFE856
:2034D00009F005080E471114202F4200306828603FE00121697528696030286139E0306831
:2034F000E88236E03168396433E0306818B98020FEF780FB2DE001282AD18020FEF789FB30
:2035100027E03878002804BF786900280ED13168192006F092F831681A2006F08EF818E078
:203530003878002804BF7869002801D0002410E0316807F1440006F092F8316807F1940078
:2035500006F08DF805E03078934981F8600000E0032400F00FF82046BDE8F2839523000068
:203570000020094047210000551F00007D210000F31E0000404606F06BB92DE9F84F0E46F6
:2035900092B037688649BF088F4202D2327A022A01D003205CE0009006F047F8DFF80492C5
:2035B000DFF8F4B1D9F80010804600980025884208BF012585F001000BEB80018C6E0099E4
:2035D000009801F18002019218B1104605F03BFE90BB24B104F1800005F035FE60BB307A6D
:2035F0008DF846000DF1080A3CB1307A8DF8460002A92046FEF7F7F98246BAF1000F1BD01B
:203610000C2045430BEB0500316840F8701F327A0272654801680198B7FBF1F1FDF7C7FF6E
:20363000FFF7A8FF02A8824504D09DF846105046FEF704FA83200BE09BF8940040F002003D
:203650008BF894000098C9F81C00FFF793FF002013B0BDE8F08F00005D210000B1200000F0
:203670009D18000038B503248368CA0F13D100BF56A21C8840F60205AC4216BFB4F5C15FA5
:203690005982598315680095ADF8021000226946FFF7C1FA8324204632BD0000014600BF16
:2036B0004BA0896800680A8840F602039A4216BFB2F5C15F498A498B800D41EA805070478B
:2036D00070B502460023394E03EB830410577F281FBF1419D4F80140C4F31505B54208D088
:2036F000E40FB4EBD17F06BFC1F31504A5425B1CEAD170BDB8B500BF36A26FF07F054BB21C
:203710001468AB4209D100920021421C535C0DF80130491C0429F9D31EE0002202EB820370
:20373000C5567F2D1AD0471CDFF880E0FF58C7F31507774512D04FB2AF42A8BF521CEDDAD5
:203750000CE000210096C2180A4412F8042C0DF80120491C0429F6D30098B2BD002AF0D1E1
:203770002046B2BD682600200100020401000104D8210020D421084045210000C920000004
:20379000009C00000430044000093D008C260020FFEFFF9FCF200000E02500200100030445
:2037B00041420F004C260020DC250020FFFF3F00FFFFFFFF0000000000000000000000007B
:2037D0003A010000000000000000000010000000FFFF3F00FFFF3F002DE9F04F09AFADF169
:2037F0003C0D08900A92388809911E46ADF81800101C08BF002000F07581017800274FF0E9
:20381000010B401C4FF0FF39B846DA460A9061E1252940F056810178401C0A902D2918BFCE
:20383000ADF8068004D10178ADF806B0401C0A9030291CBF4246434604D10178401C5A461F
:203850005B460A902A29CDF800804D4617D1049330680A9BCDF80890C01C20F00300001DCD
:20387000306050F8044C1978002C009403F101000A9018D5ADF806A06442009413E0444641
:203890000AE0600000EBC4004018A0F130040A9801780094401C0A90302901DB3A29F0DBFA
:2038B000CDF8089004932E2929D10178401C2A290A9011D13168CDF80880C91C21F003012F
:2038D000091D316051F8045C002D48BF454601782B46401C0A9011E0454643460AE0680082
:2038F00000EBC5004018A0F130050A9801782B46401C0A90302901DB3A29F0DB02930AB1B5
:20391000224604926C2904D04C2918BFADF8048004D10178ADF804A0401C0A900BA8CDF8B6
:203930000C800FAB07906429059300F0828069297FD0BDF818C075296DD0782969D06F29C8
:2039500065D070294ED063293ED0732922D00A98401E0A90099801281AD966490C68B5F123
:20397000FF3F03D0A84288BF6D1C05D86FF00041814294BF0D1C099D029508A80AA9324698
:203990006B46A04709993F18091A0398099165E0454617E03068C01C20F00300001D306033
:2039B00050F8040CBCF1010F014608B94FA00146079105F019FC0390B5F1FF3F4FD0A84282
:2039D0004DD9039528464AE03068C01C20F00300001D306010F8040C8DF82C005D46039549
:2039F00058463CE0082035680490E81C20F00300001D306050F8041C082210230FA802F072
:203A10007BFE401E079040210170079823E0082302E0102300E00A233068C01C20F00300E0
:203A3000001D306050F8041CAA42BCBF2A1C04920DE03068C01C20F00300001D306050F8B5
:203A5000041CAA42BCBF2A1C04926FF009030FA802F052FE07900599081A0390009C241ACB
:203A7000BDF8065000945DB906E008A8202109AA04F027FF7F1C009C641E0094F5D503982B
:203A9000401EB0F1FF3F03900FD1BDF8060001281CD10098401E009018D408A8202109AA7F
:203AB00004F00FFF00987F1CF4E70798017809AA08A804F006FF0798401C079003987F1CAA
:203AD000DEE708A809AA04F0FCFE7F1C0A980178401C0A9000297FF49BAE089808B141464F
:203AF000017038460FB0BDE8F08FC046286E756C6C2900C0889C0000BA482DE9F84F00256A
:203B1000B94CB749056094F8E200002800F06381012800F02F81B54E02283CD0032840F064
:203B30005A8151F8250CD4F8B8100029A0F5C060C4F8D400B8BF49420028B8BF4042814238
:203B500026DA4FF08057D7F8A4014568B4F8BC0030214FF47F42082300903046A847D7F872
:203B7000A4014568B4F8C00004214FF4F802122300903046A847D7F8A401B4F8D0704568DE
:203B900020214FF440620A2330460097A847012584F8D8501AE151F8258C05F05BFC2F4646
:203BB00000B901273946924F38680028FCD0B146012609F10409D9F82CA03E6009B105F011
:203BD0004FFCCAF30720C4F8BC0005F043FCAA4600B9B2463B68002BFCD0D9F800B0BAF193
:203BF000000F3E6001D005F03BFCCBF38440C4F8C00005F02FFCAA4600B9B2463B68002B7E
:203C1000FCD0D9F81C90BAF1000F3E6001D005F027FCC9F38120C4F8D000B8F5C061C4F897
:203C3000B81000F09C8094F8D80068B9C4F8D410D4F8C000C4F8C800D4F8BC70C4F8C47083
:203C5000D4F8D030C4F8CC30D4F8D400D4F8BC30002854BF02226FF0010204F1C8010F6882
:203C700000EB40008018421000EB927207EBA2000860D4F8C810C4F8C43000291CDD1E2977
:203C90003CDDD4F8CC0030B93429B4BF15391E21C4F8C81025E02A29BABFD4F8C8000B38E1
:203CB0001E20C4F8C800D4F8C4003F28B4BF401C3F20C4F8C4001FE0D4F8CC00032812D0E9
:203CD00011F10B0FC6BFD4F8C8000B30301CC4F8C800D4F8C4000028C4BF401E051CC4F81E
:203CF000C450032508E011F1150FC6BFD4F8C8001530301CC4F8C800C4F8CC504FF080574E
:203D1000D7F8A401B4F8C43030214FF47F424568364800930823A847D7F8A40104214FF476
:203D300000321123456831480096A847B4F8C860D7F8A40104214FF4F802122345682B4863
:203D50000096A847D7F8A40120214FF440620A23B4F8CC60456825480096A84701E084F833
:203D7000D85040F2FF50404502D8801C40452DD208202EE051F8251C1E4F4BF2F520484301
:203D9000060A3868C0F3814001280AD104F0AEFD03F038FE05F06AFB3111C010484306EB3B
:203DB000E03694F8E50030B91348006820F07F403618760801E084F8E5501048310C066098
:203DD000012741600E4D8760287808B90B2000E0052084F8E40000F03FFCBDE8F88FC0467A
:203DF0002D400C402C500C407811002000A00C4000800C40B43F0050102009403C600C402D
:203E1000D19B0000F8B5A0F2013517460E46022D40F214818A4A8B498B4B2D1F0F2D04D927
:203E3000143D4AD0AD1E1CD011E0DFE815F0C300BC00F400E400B300AB000701A2009A009A
:203E5000100010009200880079006F006300282880F2F480022E40F0F180398803F0F6FF1D
:203E7000F8BD012E40F0EA8015462879012800F0E58051793878507181B9002800F0DE804F
:203E90009078012800F0A980042800F0A680062800F0A380052800F0A080F8BD387800287B
:203EB00040F0CC809078032800F0A280072800F09F80052800F09C80F8BD012E40F0BE8068
:203ED0003878012840F0BA80154605F1F00005F01BFA002840F0B2802C46002004F13E01F4
:203EF00002F0A8FA002840F0A98004F1CC0005F0B8FBF8BD022E40F0A18038880A28C0F25A
:203F10009D80B0F5486F00F3998015E0022E40F095803888B0F5FA7F80F290800880F8BD05
:203F3000022E40F08B8038880628C0F28780B0F5486F00F383801946891C0D4638E0022E6E
:203F50007CD13888062879DBB0F5486F76DC1946F3E7012E72D1387806286FDA891F0D4647
:203F70000EE0012E6AD13878042867DA15460B3506E0012E62D1387808285FDA15460A3526
:203F90002870F8BD012E59D13878042856DA1546093506E0012E51D1387804284EDC15462E
:203FB00008352946DBE7022E48D13888154612352946B3E7012E41D11546687901283DD01C
:203FD00011793878107161B9002837D09078012803D0042818BF052830D1012005F048F842
:203FF000F8BD387850BB9078022818BF052825D105F032F9F8BD154605F1870400211F2202
:20401000204602F059FA39463246204601F0F6FE0020EE710EE0154605F1680400211F2217
:20403000204602F049FA39463246204601F0E6FE0120AE713146224603F0D8F8F8BDC04606
:20405000080200204C020020480200202DE9F84F07468748DFF80C8235380068800880F0A3
:20407000F28004F043FC864908310B6800251C17641C990D0AD2C0F13E0110F10A0F4FEA73
:20409000E101D8BF08218C42B8BF0C1CDFF8D8E1990E0FD2590E0DD37246143A1168C1F36F
:2040B00004211629A8BF20391268C2F30462162A0EDB0CE0684AD2F87C11C1F304611629C1
:2040D000A8BF20391268C2F30442162A00DB203A09199346162905DA11F10A0FB8BF6FF01C
:2040F000090100E015215D4C5D4E01F01F0242F4F8522280326812F0030F18BF0125D20883
:2041100028BF45F002050FB145F00405424692F90740041B052C04DA9479AC4208BF91880B
:2041300070D00F28A0F10F0A2BDB0AEB0014A4F1F00A4FEA2A29B9F1070F88BF4FF00709CE
:204150004E46062E88BF06265EF82670042404EB8604764634594FEA9508E41B04F0FF0670
:20417000EF0824BFC4F307273E444FEA550CAF0824BFC4F307473E446F0828BF06EB14666A
:2041900005E000264FEA95084FEA550CB1465EF829E05FEA58070EF0FF0424BFCEF30727C3
:2041B0003C445FEA5C0724BFCEF307473C446F0828BF04EB1E64B6B2ABEB0101AAEB0927BD
:2041D0007E43002906F1800604EB1624D8BF012103F0FF0334264E43B1B259434FF6FF73F0
:2041F000B1FBF4F18B4238BF191C802889B2918005DA10F1800FB8BF6FF07F0000E07F20EE
:20421000D0719571194800681F2910604FF0000008D340F2FF128A4206D24908401C8A424C
:20423000FBD301E01F219180124F114E0F39090940EAC10047EA0001C6F8FB1F0025C6F87C
:20425000FF5FBDE8F88F0C490C4F424608200F60921D1070BDE8F88F3C1100506E620840E5
:2042700024220840A82600209C130050082009403500094000E7A48030100940FDFDA40092
:20429000AC3F005001282DE9FE4F40F0EE80DFF810B2DBF8DC00012840F0E4800220CBF8BF
:2042B000DC0004F0A9FE012003F0D4FE5FEA000805D00120CBF8DC0004F0AAFED7E005F063
:2042D000C8F96C49029000200860012004F0DEF9012818BF002003D1002002F083FC0120AC
:2042F000654900900020654F08603868112005F0CFF800280CBF00240124102005F0C8F886
:2043100008B144F002040F2005F0C2F808B144F004040B2005F0BCF830B1624814300068BC
:20433000574E016B308888470A2005F0B1F8002600B101264FF0805A0AF5DC75301C04D086
:204350002868504E016B308888474F48012606602868816944F0200088474C48066005F07C
:2043700091F800F001010191400814D2484805F00DF88146B9F1040FF8D0B9F1010F05D18C
:20439000DAF8D80142684248032190474149086820F0030008600020FFF758FE2B6838681F
:2043B000986B8047019801280DD0B9F1010F05D1DAF8D801426836483146904735490868E5
:2043D00040F0030008602C48066028684169204688470B2005F05CF820B12868284BC16A76
:2043F000188888470A2005F053F820B12868254BC16A188888472448032206602349CBF843
:20441000DC2000230B602868416B204688470128F9D13868042003F01DFE044615481E49BE
:204430000660386808688009FCD30098012802D1304602F0D7FB05F013F8082003F00AFEAD
:2044500007460298CBF8DC6005F0FEF91348008802F094FA04F0DCFD57EA040018BF4FF0EF
:20447000FF3804E06FF0040801E06FF001084046BDE8FE8F0C400940000222432C20094014
:20449000349A0000309A00002820086080010443004003402422084014100940CC9B000017
:2044B00078110020A40100102DE9F04FADF1240D079000F099FC5F48007804F0D1F85E4DC7
:2044D0000024012806D90C3804D0401E0ED0401E09D006E004F06CFD022804BF01210C1C9B
:2044F00006D0696805E005211F2401E0032107246960524A1068C0F38150012806D152F8DC
:204510000C0C0127020E07FA02F0044304F0ECFE05F1440AFF2253464018401E471C286084
:204530007F1E03F8012BFBD1079A1268002602F0FF03FE2B1DD0DDF81CC0964633460EF08C
:20455000FF07FF2F0ED0B84205D3B94203D80122BA40144201D0022069E016430EF0FF028A
:204570000AF802305CF804EF5B1C0EF0FF07FE2FE7D1092001F0F8F907980121A86005F186
:20459000280004F0C5F800274FF0010BB9462846804600F198050BFA07F0044216D106428E
:2045B00004BF07F0FF0141F4C04104D01AF80700079951F82010224800F0A6FDF8B24FF00F
:2045D000FF3104F047FBC5F8009001E004202860D8F800007F1C2D1D8742DCD904A804F0B8
:2045F00043FE184C184A2078102104AB059008F10C0003F015F9684604F07EFECDF80C9012
:204610006A4660681149029008F1640003F072FA0F4951F80D0C20F4F85040F4005041F897
:204630000D0C0C4FC1F8FFBF4846C7F800B009B0BDE8F08FBC26002064100020B43F0050CC
:20465000007FC767449C0000D58D0000317700000D300940080009402DE9F843614C5A4D37
:204670005A4EDFF870815E4F94F8E4100846401E0B2864D8DFE800F07B2C4306234306233C
:2046900043067664042907D001220A2945F8212C14BF0220032004E0202045F8210C01203C
:2046B000024684F8E200002045F8390C0827C5F8FF7FC5F8F37F45F8392CBDE8F883052919
:2046D00014BF09200620002784F8E400376075E094F8E170383D0120002FC5F81B0004BFF8
:2046F0000620002102D00021F160032084F8E400032045F8010C3160306880085ED294F8C2
:20471000E4103348012703290ED00068456800216022052300914046A84794F8E400062864
:2047300014BF0A200720CFE700684568002160220523022000904046A8470420C4E7FEE7D4
:204750002548264F0026012506600E203D6001F051F8022003F04AFC84F8E45084F8E360E6
:20477000BDE8F883002038600C25786024E04FF08059D9F8A0010168202088472C3D0F20AA
:2047900045F8010C41F61D56C5F80360D9F8A401466800214FF4C0720723022540460095CF
:2047B000B047D9F8A401C66800214FF4C07207234046B0470120386084F8E45004F178003B
:2047D00004F02BFFBDE8F88339400C4038600C40A401001000A00C402C500C4004800C40A9
:2047F00034600C4078110020F8B54A48484908604948FFF759FE4F4C04F1180004F1240148
:2048100001F00CFA05210023444A206004F1300004F094F84FF08055D5F8D801404C0368E4
:2048300001210A4620469847D5F8D8014268012120469047404900260320183141F80C6F33
:20485000401E8E60FAD1374C062704F14C0001467F1E21F80C6BFBD10821334F0180334B56
:20487000334A876004F12005181D20F003000346121A62621946E0611F462062801801E029
:2048900041F8046B8842FBD8901022F00302E82103EB800040F8046CEC3A39603046C3F8FD
:2048B000E820E833636101F087FDA061286860610DA004F003FB04F039FE01F055FF0DA07E
:2048D00004F0FCFA04F032FE02F0CAFE0EA004F0F5FA04F02BFE01F0B3FF03F0EDF804F0E3
:2048F000AFFF3046F8BDC0466963616C6C20696E697400C06963616C6C2072656D6F74657F
:20491000207461736B7300C0676170726F6C6500441700205D740000F89A0000858A0000AA
:204930000040034054130020258C0000BD260020303F002048090020581300202DE9F04FC9
:2049500047A0ADF12C0D04F0B9FA04F0EFFD494C02A804F1080101F061F9099004F11001DB
:2049700005A801F05BF90A90012060603F4804F063FF03264FF0150BB146099D284604F056
:204990007BFDC143284603F0A1F90A270025A8464AF6C87004F050FF02F022FE684604F0DD
:2049B000CBFD0020694602F03BFE5FEA000A1AD008A904F0CBFD81B2504604F0CCFD50465F
:2049D00004F0BFFD08982A4981420CD8B8F1010F07D0099D284604F04FFDC143284603F014
:2049F00075F90125A8467F1ED2D1012D10D00A9F384604F041FD0546E943384603F066F937
:204A10004AF6C87004F018FF2946384603F05EF9606890FBF6F17143411A012903D113482A
:204A300004F00AFF606890FBF6F17143471A022F08D10E4804F000FF606890FBF9F101FB8E
:204A500009F1471A1FB9094804F0F6FE606890FBFBF101FB0BF1401A401C60608DE7C046B3
:204A7000656E746572696E6700C046C0709914000A00BEBE48090020F8B50446087806AFC4
:204A9000022840F08F8048684578007842F6021600EB0520801B55D04DF2EF61401A424924
:204AB00008D0401E14D0401E20D0401E2ED0401E3AD075E0022B07D113785278580000EBC8
:204AD000C3001018103801E010783038C0B21AE0022B08D113785278580000EBC3001218CB
:204AF000103AD0B200E01078491C0CE0022B08D113785278580000EBC3001218103AD0B2CA
:204B100000E01078891C08700020F8BD022B08D113785278580000EBC3001218103AD0B2D4
:204B300000E01078C91CEEE7022B08D113785278580000EBC3001218103AD0B200E0107884
:204B5000091DE0E73F884FBB022B25D15078157805EB002535F001071CD1C86806682046DC
:204B7000314604F097F800280CBF002080788542CAD02046314604F08DF848B931464FF6AC
:204B9000FF7004F087F8002808BF11200BD004808570B9E78020F8BD0D20F8BD0B20F8BDF8
:204BB0000A20F8BD0120F8BD440F00202DE9F04F0C464549CA7AADF12C0D84460592487B49
:204BD00009900D7900958A7A488B4B8A0E7B91F805A091F802800492B1F846E008904A7AE2
:204BF000088B0392CD7807900A7AC88A02920F6A0690CA79888A01928A79E146A9F54079BF
:204C1000B9F11D0F10D8DFE809F05B5553514F4D4B494643413F3C3A380F34312E2B2923B2
:204C3000201E1C0F19181716BCF1280F49DA604602F052FE21E0099EB246D046CDF814809F
:204C50001DE00898079007980690DDF818E005E03831086820608888A08032E070460AE0EE
:204C7000B1F8440009E0B1F8420004E0B1F8400001E091F83E00034612E0208021E0059875
:204C900004900498039001E03231E2E7039802900298009006E0019A87310DE068310BE033
:204CB0001846EAE7009D0BE02C31D2E7276008E0583100E048311022204601F09FF800E0C6
:204CD00025700BB0BDE8F08F08020020364AF8B5101D0368B3F1FF3F08BF002304F064F845
:204CF000012860D1314E10683268070F02F0FF02802A28BF002204F057F84FF0FF31012822
:204D100005D1381C4FD0801E04BF143251B2142949DB27482749002501270560264E0F60BB
:204D3000264C376020680028FCD1274A161D2449244F306820F0030001433868C0080CD224
:204D5000106810F0030F0AD041F003003060106800F003000328FAD101E041F001011B4843
:204D70003160006820B11A4800681846FBF734FC184819490560194F0A686FF35B4247EADE
:204D90000200086016490868C0F30130012806D10A681448104040F400320A600860206808
:204DB0000028FCD1F8BDFEE718130050A0100050840460425C600C40082204430C00684280
:204DD00004000020B03F00500040034080012843000120438C2108404820034000003901B3
:204DF00004000940FFFFFCFC2DE9FF47424C94F8E70000286ED10127384E84F8E770F07CAF
:204E100084F8E6007568C4F81051684604F0A8FB002504F10C0001956B468DF80050304926
:204E300002952A4602F0BAF92E4904F130006B462A4602F0B3F92C4904F154006B46814625
:204E50002A4602F0ABF9B16838468847DFF8A4802648327D08F104030078254E1868C0F3A0
:204E7000815A22B1BAF1030F04D184F8E170BAF1030F15D0BAF1020F12D0BAF1010F0CD03E
:204E9000022003F0C3FA042003F000FC012804D030683221B1FBF0F10DE002F049FE12E090
:204EB000022003F0B3FABAF1030F0CBF4FF47A7142F210713068B1FBF0F1484604F0ABFB68
:204ED000484604F0AAFB40460068C00802D2284603F09CFA00200090BDE8FF87BC9B0000E8
:204EF000875B0000895B0000C56A0000BC260020DC250020B03F0050781100202DE9F04359
:204F100091460A68D9F800401678804600271D463846ADF1140D531C242E0B605BD112F8AA
:204F3000016F5B1C4C2E0B600ED1AA68E41C24F00304241D54F8040C414601F047FF29689D
:204F5000EF600127091A2960462E1AD1E41C24F00304241D54F8040CE41C029024F003045A
:204F7000241D54F8040C002741460390AA68ADF8047001A800F0ACFD2968EF600127091AAB
:204F90002960532E27D1E41C24F00304241D54F8040CE861C9F80040288B0090A968EA6956
:204FB000D8F800004B46FEF717FCD8F80040002754B1A968002902DD8142D8BF481ED8F893
:204FD00000100918C8F80010D9F800402968EF600127091A2960662E0AD12B8B23B9E41DF9
:204FF00024F00704083403E0E41C24F00304241D1FB9E9690E700127EF60C9F8004005B032
:20501000BDE8F0832DE9F0430546ADF11C0D04F00FFC03F09BF94FF000090746CDF80C9091
:2050300004F066FA30F0010014BF002F6FF0040066D068684C4658B1B0F1FF3F05D004A984
:2050500003F06CF930B1804659E04FF0FF3000E02046049004F0E8FB04994FF001084618A6
:2050700002E00A463BE004937868049904F0D8FB00282DD0684602F013F8D8B99DF80400FE
:2050900005A902F017FF88B9AB68BDF814009DF80610029A984748B1BDF814009DF806604A
:2050B000A881029BAE73C8462B6111E0029903A803F094FA0498641CB0F1FF3FD4D00028E0
:2050D000D2D004F0B1FB331A02D004989842CAD2039E03F0D9FE07F1080546B1324652F824
:2050F0000C1C0029BDD1296842F80C1C2E6004F007F824B1786804F08FFB641EFAD1404647
:2051100007B0BDE8F08370472DE9F84F0C4605465FFA84F8200824BF3148444031494FEA6F
:205130008803C85884EA00022A40C2F300672E4A05EA0406A843324005F4E0260243B6F501
:20515000E02F01D1500E14D305F4E020074310D002F4E027B7F5A02707D0B7F5803704BF89
:2051700022F4003242F4A02203E022F4803242F4C022DFF878B01E4F012000FA08FACBF8D0
:2051900000A0DFF87090CA500146386801FA08F60027064218BF0F1C37B9E80D04D34946D2
:2051B000C4F3805001F80800280E0DD304F03DFA210E34BF0021311C0D4A1268B24311436C
:2051D0000B4A116004F044FB37B1E80D04D34846C4F3805100F80810CBF800A0BDE8F88F5D
:2051F000006000A000100840007F077FE0200260D02002400020024010B5401EADF1380D46
:205210003FD0C01E36D0401E37D0401E61D104F04BF900208DF83000082003F0DAFC041C78
:205230000CD00121182204F0E9F803F0E2FC0CA90123294A0091214602F0D4FC102003F057
:20525000C8FC041C10D00121192204F0D7F89DF83000401E208102AAE26003F0CAFC1F4A86
:20527000214602F0A1FCA0B307A940F21530FFF79DFC2EE01A4804F0F4F9142003F05EFA4F
:2052900027E04FF441700AA9FFF790FC9DF829408DF809409DF82A308DF80A3000228DF8AD
:2052B0000C209DF82D108DF80B209DF828008DF80F109DF82C408DF808009DF82B308DF8CC
:2052D0000E4008498DF80D3002AC22680A60606848600EB010BDC046F1930000E3930000C0
:2052F00050060020EB0B0020F8B504F0B3F801F079FB04F0C7F8054605F00C000C2853D00B
:20531000E80826D203F072FA2A4E376804460120014603F01DFD31686143884219D22649FF
:20533000F020B0FBF7F0241A887C18B1C868A04238BF041C214D2146284604F069FA28467F
:2053500004F062FA0120FEF79DFF284603F0D2FC2CE0280928D21A4804F018F80428FAD079
:20537000184A690905D220B11168104621F0010103E01046016841F0010101609832106847
:205390004FF0805540F003001060D5F8B8018169202088470C4CD5F8B8712068B86B804707
:2053B00001202060206801E0FBF7E2FF04F058F8F8BDC0467C9C0000BC9B000084110020DD
:2053D000004003408C2108402C2009402DE9FC41364D804628680C4680472068B0F1FF3F04
:2053F0005ED06269500958D2100A05D320460021022201F049F9626990094FF0000104D2D7
:20541000D00924BF42F02002626167684FB9D00807D202F0070220464FF4807300F020F981
:205430000146E268002922613AD1606900F0070004281BD0A068824204D8204601F072FFCD
:20545000F0B9A068411CA1605FFA88F606706069800806D3B8F10A0F03D1204601F062FF68
:2054700070B9686880473046BDE8FC8120688DF800806946012203F0B1FAB0F1FF3F06D111
:205490006069696840F48060606188470AE0686880475FFA88F0BDE8FC8142F4806262616F
:2054B000686880474FF0FF30BDE8FC81CC1600202DE9F04784684568DFF8B8A0687C8846EC
:2054D00020B150464FF0FF3103F0A2FE022002F09DFFDFF8A490D9F8000001280BD00220A1
:2054F00002F084FD687C10B1504604F0AEF84FF0FF30BDE8F08721486178006803F0F2F843
:2055100003F0D2FEE07808B902F038FF20796179A27900F0CDF91A480027076003F0CCFE85
:20553000184986B2086800F490600861302004F078F800F0B9FE0120C9F80000022002F0B4
:2055500055FD687C10B1504604F07FF8A07860B1207903F01BFC0546207903F01DFD02463E
:205570002946304603F024FB86B2A8F800603846BDE8F087D415002008800C408C000010D9
:205590001C900C4028500C4080B50288A2F602073FB143F20502BF1A14BF002290F8242019
:2055B00000E0C27B2D482430D0F88832521F0B6048D0521E3CD0121F30D0921E24D0D21E3E
:2055D00018D00F3A0CD0D0F890224A60D0F894228A60D0F8BC0220F0784040F080503AE0BA
:2055F00042694A60C26A8A60406C20F0784040F0704030E002694A60826A8A60006C20F065
:20561000784040F0F04026E0C2684A60426A8A60C06B20F0784040F0C0401CE082684A603F
:20563000026A8A60806B20F0784040F0A04012E042684A60C2698A60406B20F0784040F043
:20565000405008E002684A6082698A60006B20F0784040F02050C86080BDC046A01000509B
:205670002DE9F041DFF8C8800446D8F800001F4616460D4680472068B0F1FF3F02D0042E54
:2056900003D017B9D8F804002EE0636873B16069010903D3581E03F0DFFC606900216160EE
:2056B000A160E16020F00800216100E0606906B9012620F00700012F46EA0006666108BF64
:2056D0000025B7F5807F88BF4FF48077B5B97F1C384602F029FF0546D8F804004DB96169D9
:2056F000656041F48061616180474FF0FF30BDE8F081616941F00801616101E0D8F8040037
:205710006D1C65602561E919A560491EE1608047D8F8000080470549034AD8F804001160B8
:2057300080470020BDE8F081A816002079870000CC1600202DE9F0470646D6F800907769A5
:20575000B9F1FF3F07F4805A02D001F0EBFD18B14FF0FF30BDE8F0877069000907D37068EA
:20577000401E03F079FC706920F008007061002777603568B7601C4CF760002D1FD4206878
:205790000A2D1DDA80471A49EA0050396068535889180D4693B1186902464868904780466D
:2057B000B8F1FF3F06D029684FF6FE704A892F601040488160688047206803E08047206814
:2057D0004FF0FF384FF0FF31BAF1000F316007D08047064800EB091003F0ECF86068804733
:2057F0004046BDE8F087C046CC160020B40D0020DC1200202DE9B043044603F016FF8146DE
:205810002748221892F8EF10491ECFB2002F82F8EF703FD1254901EB84014A880C7890463B
:2058300034F07F0718D1E1090FD24FF0805000F5DC75D0F8B8018169104688472868416BD9
:20585000404688470228F9D11EE000EB8800D0F804110020884717E04FF08055D5F8B80121
:20587000016A10468847D5F8B801816A40468847D5F8B801016B404688470A49012008609F
:20589000094908688008FCD304F03F00132801DAFFF7B0FF484603F0DBFF0020BDE8B0839E
:2058B000781100202820086028200840069A00002DE9F0410D4640F001011646CCB218B9D8
:2058D000062D38BF44F0400403F0C4FD002700B9012739461F4F38680028FCD0DFF878800A
:2058F00088F8024001243C6009B103F0B9FD1B490C6008688008FCD3002E08BF40F60110DF
:2059100003D01848066041F601601549086003F0A1FDEE00F5B2002600B9264631463868F8
:205930000028FCD088F800503C6009B103F098FD03F090FD002600B92646314638680028AB
:20595000FCD0032088F800003C6009B103F088FDBDE8F08100800C4018B00C4030600C4028
:2059700010900C4000370840F8B5064603F05DFE264D0746711991F8EF00421C002881F8A4
:20599000EF203ED1224C04EB8604267806F03F00132801DAFFF7E8FF648836F07F0018D1B2
:2059B000F0090FD24FF0805000F5DC75D0F8B8014169204688472868416B204688470128AE
:2059D000F9D11EE005EB8405D5F804110120884717E04FF08055D5F8B801C16920468847B4
:2059F000D5F8B801416A20468847D5F8B801C16A204688470749012008600749086880082A
:205A1000FCD3384603F024FF0020F8BD78110020069A000028200860282008402DE9F0416E
:205A30000E462A4990461C4606AF8C4672680878BB8851783F881278002502EB012242F6AC
:205A50002321521A2AD0521E052A19D9921F0DD0263A35D1072F31D8C7F10700984298BFD8
:205A700083B20CEB070000F1080121E0B84225DBC01B9842D8BF83B22380DCF804100BE0F7
:205A9000F06803F0B1FB80B2B84217DBC01B9842D8BF83B22380F168C9190AE0082F0DD87C
:205AB000C7F10800984298BF83B20CEB07010F31238040461A4600F0A1F903E0072501E06E
:205AD00025800A252846BDE8F081C046DC0B00202DE9F843002A8946074604D4B2F5004FEC
:205AF000B8BF95B201DB47F6FF75002F08BF002034D03888002808BF002403D02A4600F02B
:205B100065FA84B2AC4228D0388830B1291B484613A201F001FD001984B2B868E8B17E68F5
:205B30008EB1304603F060FBA5EB0408401D1FFA88F1884207D833464146484609A201F0F4
:205B5000EBFC001984B2291B122906D3BB68484606A201F0E1FC001984B22046BDE8F883AB
:205B70003A2000C0222573222C2000C06C696E652025643A200070472DE9F04103F055FD25
:205B9000254D214E804605F1E000007848B93446A168022088470746102002F05BFA6FB3A5
:205BB0001AE003F06FFCC0091AD218480068C4681748342101220023A04788B100F0E0FFEB
:205BD00034460020A16885F8E000022088470746102002F03FFA8FB1A168032088470DE0F4
:205BF0000C4800683221B1FBF0F101B901213035284603F010FD284603F00FFD404603F064
:205C100027FEBDE8F081C046BC9B0000A401001000A00C40DC250020781100202DE9F0412A
:205C30000E46071C14BF002E002040D0224C4FF0FF3104F12800804603F0EAFA3078FE2847
:205C500011D022680021FF2808D082422AD31F2828DA04EB8000D0F898501DBB491C16F835
:205C70002100FE28EFD1002038607860B8603078FE2818D00125FF280FD01F280DDA7B6872
:205C900004EB800105FA00F0C1F898701843094978603268384601F0E1FF16F8040FFE281F
:205CB000E9D100E00027404603F0CFFC3846BDE8F081C046007FC767641000202DE9F041AD
:205CD00014460F4603F09CFD1FFA80F81F480068007808B903F0A0F8E7B138684FF0FF35AA
:205CF00018B140280AD3810B08D17E681EB1310A04D0310E02D1B9680F2908D93DB10CB166
:205D1000284620700820FFF775FD002418E07968BA6803E04FF480700122014602F05EFBFB
:205D30000B49012008600B4908684008FCD30A4800684168022088470CB10021217004468E
:205D5000404603F085FD2046BDE8F081E89A0000A802504208800240CC010010F0B520484A
:205D70000127F84201D001F003FB204D204F214EBD4206D203CD0478A4003459401CA0470F
:205D9000F6E71D48002800D08047164D164FBD4202D210CDA047FAE7F0BD03251BE0416839
:205DB00008300A1C2A400BD11A1C2A40AB4305D0046804300C600431043BF9D1131C05D07E
:205DD000047801300C700131013BF9D1021C2A4001D0A84304300368002BE0D17047C046D6
:205DF000FFFFFFFF000000000000000080A10000E0A1000040A1000055C50110002A4AD0A5
:205E10005FEA000C8B071CD1830722D1102A08D370B4103A78C978C0103AFBD270BC1032A0
:205E300038D0042A2CD3082A05D30C2A24BF08C908C008C908C008C908C092072AD0920FFB
:205E500022E00B780370491C401C521E22D08B07F7D1C30714D18307D8D0121F12D308C9F5
:205E700003801B0C4380001D121FF8D20AE008C903701B0A43701B0A83701B0AC370001DFA
:205E9000121FF4D2121D05D00B780370491C401C521EF9D160467047F8B506AF3F889646A4
:205EB000002F18BF0B2042D1087802283CD149681F484F780579C678847890F801C002787D
:205ED0000978002001EB07214FF6F177C91B20D0491E17D0491E0FD0491E07D0491E20D152
:205EF0000A2DB4BF012102212C4609E00A2EB4BF01210221344603E00A2CB4BF012102210D
:205F100022460AE0BCF10A0FB4BF01210221624603E00A2AB4BF0121022119808EF80020EB
:205F3000F8BD01460A2001E0002101201980F8BD440F00202DE9F8432020EFF3118780F3C9
:205F50001188214CA068012103F056FC4FF001094FF0000865692168A4F81C906A1A216880
:205F7000A4F81E80461B401A904227D387F3118840462D18361A4846294603F039FCB0420B
:205F9000F7D92021EFF3118781F31188E18B012903D14046294603F02BFCB0F1FF3F06D02B
:205FB000A169801B814238BF081C291801E0A069411903F019FCA4F820902560A4F81C80B8
:205FD00087F31188BDE8F883780100207FB503461F480D4601881F480088144614A6984248
:205FF0001CDA994216DA1C480088002808BF13A217D00095002C48BF47F6FF74174E00205C
:206010001749ADF804406A46346802901846A04702980AE0184602F029FF08B9324600E0EF
:2060300042682146284601F077FA00907FBDC0467B6D6F64756C652325647D007B6D6F64B8
:20605000756C652D726F70653A25787D00C046C0AA9C0000AC9C00008E1400008C9C000095
:20607000298800008B4208BF824204D90B1C021C002100207047002B08BF002A0BD10B1CCE
:20609000021C00210020002B08BF002A1CBFC943C04300F032B8F0B51C4615460B460246B6
:2060B00000200021B4FA84F6202E04BFB5FA85F62036B3FA83F7202F04BFB2FA82F7203721
:2060D000F61BB6F1200727BF05FA07F400257F42B4403EBF25FA07F73C43B540A34208BFDD
:2060F000AA4201D3521BA341404149416D0845EAC4756408761EF1D5F0BD7047B0B50446BE
:20611000A768ADF1280D5FBB0C2000F055F9071C1DD0684600212422082303F061FB002347
:2061300006976A466168ADF810301848059303F053FB386070B90820ADF824000C25ADF893
:20615000265009A801F09CFE384602F031FA6FF0030018E0E06878602069B860A7600AE0D6
:2061700002F092FE0546386802F0C4FD2069B860284602F0C5FF3868616803F049FB3868EA
:2061900003F042FB00200AB0B0BDC046299400002DE9F8438146EFF31188202080F31188D6
:2061B0001E4D1A4C184F012605F11C000660A4F114000660F86A016A14208847D9F8100038
:2061D000810C14BF000C04202060386802682321002090470E480F4F0660386800280CBFAD
:2061F000311C03210C4807680FB141F00401183C206820F4E02040EA014020602E6088F381
:206210001188BDE8F883C046840100101820094080022443749C0000789C00000000244325
:206230002DE9FC4106467568B7680C4603F0FDF980461C4A2B7C10882BB1404603F008FBB5
:206250000020BDE8FC8101212974237914466B7418B9201D02F05CFA2088401C80B220802C
:206270004FF08054D4F8A001016810208847D4F8A001016880208847404603F0E9FA3878D5
:20629000FE246946019440F0204000902846FFF7C5FCE860002812BF301C00202874BDE855
:2062B000FC81C046D0150020F8B503F0D3F8002400B90124194E214630680028FCD01B4D17
:2062D000492001241035A870346009B103F0C8F803F0C0F8002700B927463946306800288B
:2062F000FCD0FB202870346009B103F0B9F803F0B1F8002700B92746394630680028FCD029
:206310006C70346009B103F0ABF805490C6000200860044F3860044E3060F8BD00800C401D
:206330000402924330600C4010900C4018B00C4070B51E4DAC68064602F022FE4FF47A7166
:20635000001B4843030C02F0D1FA2969401A48BF404240F6B831F618B14210D306280EDA2D
:20637000E9688C420BD8286848B1114A091B51438A0C02EB1141884288BF011C08E00D492E
:20639000486840080ED208687D2100F0FF004143C82905D3B1F57A6F88BF4FF47A6103E0F4
:2063B000C82101E04FF4FA61084670BD7826002040420F00AC3F0050D0B5001D84B214F084
:2063D000030002D0241A241DA4B202F05DFD1849102C02464F690A61C8BF8F69386800236D
:2063F0001E46010817D226B9844209D93B46012614E0196809188C4219600FD81F46084691
:206410008FB1001B042834BF3C68385144F000443C603F1D07E080F0004000263F183868A1
:206430000028DED10027104602F06AFE3846D0BD541300202DE9FF410E4605461A4C7188B8
:20645000E08A81420CDCB188814209DBF088218B884205D13089618B884208BF18271FD00F
:20647000052001F039FA77888046F188B388ADF80270A08AADF806100C4AADF80000378993
:20649000ADF8043011216846ADF8087001F0CBFE071C05D1A57304F1F000414601F032FCC0
:2064B00038460090BDE8FF810802002007960000002213460A46194671B510F0030F0BD095
:2064D000002A82BF00F8011BB2F1010210F0030FF6D1002A08BF71BD11F0FF0141EA012141
:2064F000042A18D341EA0141082A0FD30E46102A08D30C460D46B2F10F0312F00F0272C0EA
:20651000103BFCD812F0080F18BF42C012F0040F18BF40F8041B12F0020F18BF20F8021BF8
:2065300012F0010F18BF017071BDFEE738B5054601201A4C68712879B0B902F0A5FC217810
:20655000002904BF6FF00704051C15D0491EC9B2217039B902F0D4FD606801F0B7FF002018
:20657000687118E0054613E002F08EFC05462078FF2805D16FF00604284602F0C1FD0BE02E
:20659000401CC0B20128207002D1606801F0B5FF284602F0B5FD0024204638BDD416002089
:2065B00070B50646B079F4680628A4F10C042CDA3079062829DA02F067FC154DB2799100AF
:2065D0000C3501EBC20149194968E1B102F098FD30792071B0796071307AA071B1798800EE
:2065F00000EBC1004019F1684068083001F0F6FFB179880000EBC10040194068406803F06D
:206610000BF9002070BD02F07BFD6FF0020070BD941300202DE9FF41082504240746ADF8BD
:2066300000500E46ADF802406846019401F028FC00280CBF029B002312498868F3B11F8026
:2066500080469E700C20ADF800501F46ADF80240CE680190684601F013FC60B9029951B1BE
:206670008F60304603F0B4F8B8F1000F06D0404603F0D2F802E0384602F052FC0090BDE860
:20669000FF81C046EC0500202DE9F041184E0446306890460D4680472068B0F1FF3F22D07B
:2066B000B8F1010F07D16069400904D3A06810B12169081A2D1A204600F034FE60692268B9
:2066D00020F42060002A60610DD40A2A0BDA0949D00047583FB10A584018D16940680B4693
:2066F00042462946984770688047BDE8F081C046CC1600208C1200202DE9F8430024002B99
:2067100016460F468046254606D5002FC3F1000302D57F42761E2D2599463846494601F06B
:206730003FF80CA0405CB7FBF9F7002F04F1010408F8010DF1D1A64205DD3021301B401E6B
